8=FIX.4.2|9=61|35=A|34=1|49=SID|52=20220118-06:11:14.062|56=KID|98=0|108=30|10=168|8=FIX.4.2|9=49|35=0|34=2|49=SID|52=20220118-06:11:44.296|56=KID|10=145|8=FIX.4.2|9=49|35=0|34=3|49=SID|52=20220118-06:12:15.048|56=KID|10=140|8=FIX.4.2|9=49|35=0|34=4|49=SID|52=20220118-06:12:45.293|56=KID|10=146|8=FIX.4.2|9=49|35=0|34=5|49=SID|52=20220118-06:13:15.293|56=KID|10=145|8=FIX.4.2|9=49|35=0|34=6|49=SID|52=20220118-06:13:46.048|56=KID|10=148|8=FIX.4.2|9=132|35=D|34=7|49=SID|52=20220118-06:13:47.220|56=KID|11=1642486427195|21=1|38=100|40=2|44=20|54=1|55=msft|59=0|60=20220118-06:13:47.218|10=231|8=FIX.4.2|9=49|35=0|34=8|49=SID|52=20220118-06:14:18.048|56=KID|10=150|8=FIX.4.2|9=49|35=0|34=9|49=SID|52=20220118-06:14:49.048|56=KID|10=155|