8=FIX.4.2|9=64|35=A|34=1|49=ORS|52=20220329-13:20:39.100|56=BROKER|98=0|108=30|10=174|8=FIX.4.2|9=52|35=0|34=2|49=ORS|52=20220329-13:21:09.648|56=BROKER|10=145|8=FIX.4.2|9=64|35=A|34=3|49=ORS|52=20220329-13:26:36.979|56=BROKER|98=0|108=30|10=203|8=FIX.4.2|9=52|35=0|34=4|49=ORS|52=20220329-13:27:07.665|56=BROKER|10=150|8=FIX.4.2|9=52|35=0|34=5|49=ORS|52=20220329-13:27:37.918|56=BROKER|10=155|8=FIX.4.2|9=52|35=0|34=6|49=ORS|52=20220329-13:28:07.927|56=BROKER|10=154|8=FIX.4.2|9=52|35=0|34=7|49=ORS|52=20220329-13:28:38.667|56=BROKER|10=160|8=FIX.4.2|9=52|35=0|34=8|49=ORS|52=20220329-13:29:08.924|56=BROKER|10=155|8=FIX.4.2|9=52|35=0|34=9|49=ORS|52=20220329-13:29:39.663|56=BROKER|10=160|8=FIX.4.2|9=53|35=0|34=10|49=ORS|52=20220329-13:30:09.913|56=BROKER|10=188|8=FIX.4.2|9=65|35=A|34=11|49=ORS|52=20220329-14:02:01.901|56=BROKER|98=0|108=30|10=223|8=FIX.4.2|9=53|35=0|34=12|49=ORS|52=20220329-14:02:32.815|56=BROKER|10=187|8=FIX.4.2|9=53|35=0|34=13|49=ORS|52=20220329-14:03:02.870|56=BROKER|10=187|8=FIX.4.2|9=53|35=0|34=14|49=ORS|52=20220329-14:03:33.806|56=BROKER|10=191|8=FIX.4.2|9=99|35=j|34=15|49=ORS|52=20220329-14:04:02.681|56=BROKER|45=15|58=Unsupported Message Type|372=D|380=3|10=052|8=FIX.4.2|9=53|35=0|34=16|49=ORS|52=20220329-14:04:32.803|56=BROKER|10=190|8=FIX.4.2|9=99|35=j|34=17|49=ORS|52=20220329-14:04:58.889|56=BROKER|45=17|58=Unsupported Message Type|372=D|380=3|10=077|8=FIX.4.2|9=53|35=0|34=18|49=ORS|52=20220329-14:05:29.807|56=BROKER|10=203|8=FIX.4.2|9=53|35=0|34=19|49=ORS|52=20220329-14:05:59.872|56=BROKER|10=209|8=FIX.4.2|9=53|35=0|34=20|49=ORS|52=20220329-14:06:29.877|56=BROKER|10=204|8=FIX.4.2|9=53|35=0|34=21|49=ORS|52=20220329-14:06:59.880|56=BROKER|10=202|8=FIX.4.2|9=53|35=0|34=22|49=ORS|52=20220329-14:07:30.876|56=BROKER|10=198|8=FIX.4.2|9=53|35=0|34=23|49=ORS|52=20220329-14:08:00.878|56=BROKER|10=199|8=FIX.4.2|9=53|35=0|34=24|49=ORS|52=20220329-14:08:31.814|56=BROKER|10=194|8=FIX.4.2|9=53|35=0|34=25|49=ORS|52=20220329-14:09:01.872|56=BROKER|10=197|8=FIX.4.2|9=53|35=0|34=26|49=ORS|52=20220329-14:09:31.879|56=BROKER|10=208|8=FIX.4.2|9=53|35=0|34=27|49=ORS|52=20220329-14:10:02.797|56=BROKER|10=198|8=FIX.4.2|9=53|35=0|34=28|49=ORS|52=20220329-14:10:32.804|56=BROKER|10=191|8=FIX.4.2|9=53|35=0|34=29|49=ORS|52=20220329-14:11:02.807|56=BROKER|10=193|8=FIX.4.2|9=53|35=0|34=30|49=ORS|52=20220329-14:11:32.811|56=BROKER|10=183|8=FIX.4.2|9=53|35=0|34=31|49=ORS|52=20220329-14:12:02.870|56=BROKER|10=187|8=FIX.4.2|9=53|35=0|34=32|49=ORS|52=20220329-14:12:32.875|56=BROKER|10=196|8=FIX.4.2|9=53|35=0|34=33|49=ORS|52=20220329-14:13:02.880|56=BROKER|10=191|8=FIX.4.2|9=53|35=0|34=34|49=ORS|52=20220329-14:13:32.902|56=BROKER|10=190|8=FIX.4.2|9=53|35=0|34=35|49=ORS|52=20220329-14:14:03.880|56=BROKER|10=195|8=FIX.4.2|9=53|35=0|34=36|49=ORS|52=20220329-14:14:33.881|56=BROKER|10=200|8=FIX.4.2|9=53|35=0|34=37|49=ORS|52=20220329-14:15:04.878|56=BROKER|10=206|8=FIX.4.2|9=53|35=0|34=38|49=ORS|52=20220329-14:15:35.807|56=BROKER|10=203|8=FIX.4.2|9=53|35=0|34=39|49=ORS|52=20220329-14:16:05.811|56=BROKER|10=197|8=FIX.4.2|9=53|35=0|34=40|49=ORS|52=20220329-14:16:35.877|56=BROKER|10=204|8=FIX.4.2|9=53|35=0|34=41|49=ORS|52=20220329-14:17:06.813|56=BROKER|10=194|8=FIX.4.2|9=53|35=0|34=42|49=ORS|52=20220329-14:17:36.877|56=BROKER|10=208|8=FIX.4.2|9=53|35=0|34=43|49=ORS|52=20220329-14:18:06.878|56=BROKER|10=208|8=FIX.4.2|9=53|35=0|34=44|49=ORS|52=20220329-14:18:37.801|56=BROKER|10=199|8=FIX.4.2|9=53|35=0|34=45|49=ORS|52=20220329-14:19:07.812|56=BROKER|10=200|8=FIX.4.2|9=53|35=0|34=46|49=ORS|52=20220329-14:19:37.878|56=BROKER|10=216|8=FIX.4.2|9=53|35=0|34=47|49=ORS|52=20220329-14:20:07.878|56=BROKER|10=206|8=FIX.4.2|9=53|35=0|34=48|49=ORS|52=20220329-14:20:38.806|56=BROKER|10=202|8=FIX.4.2|9=53|35=0|34=49|49=ORS|52=20220329-14:21:08.872|56=BROKER|10=204|8=FIX.4.2|9=53|35=0|34=50|49=ORS|52=20220329-14:21:38.876|56=BROKER|10=203|8=FIX.4.2|9=53|35=0|34=51|49=ORS|52=20220329-14:22:08.878|56=BROKER|10=204|8=FIX.4.2|9=53|35=0|34=52|49=ORS|52=20220329-14:22:38.882|56=BROKER|10=203|8=FIX.4.2|9=53|35=0|34=53|49=ORS|52=20220329-14:23:09.806|56=BROKER|10=199|8=FIX.4.2|9=53|35=0|34=54|49=ORS|52=20220329-14:23:39.881|56=BROKER|10=206|8=FIX.4.2|9=53|35=0|34=55|49=ORS|52=20220329-14:24:10.813|56=BROKER|10=192|8=FIX.4.2|9=53|35=0|34=56|49=ORS|52=20220329-14:24:40.873|56=BROKER|10=202|8=FIX.4.2|9=53|35=0|34=57|49=ORS|52=20220329-14:25:11.807|56=BROKER|10=199|8=FIX.4.2|9=53|35=0|34=58|49=ORS|52=20220329-14:25:41.874|56=BROKER|10=207|8=FIX.4.2|9=53|35=0|34=59|49=ORS|52=20220329-14:26:12.806|56=BROKER|10=202|8=FIX.4.2|9=53|35=0|34=60|49=ORS|52=20220329-14:26:42.809|56=BROKER|10=200|8=FIX.4.2|9=53|35=0|34=61|49=ORS|52=20220329-14:27:12.880|56=BROKER|10=198|8=FIX.4.2|9=53|35=0|34=62|49=ORS|52=20220329-14:27:43.808|56=BROKER|10=203|8=FIX.4.2|9=53|35=0|34=63|49=ORS|52=20220329-14:28:13.809|56=BROKER|10=203|8=FIX.4.2|9=53|35=0|34=64|49=ORS|52=20220329-14:28:43.878|56=BROKER|10=213|8=FIX.4.2|9=53|35=0|34=65|49=ORS|52=20220329-14:29:14.803|56=BROKER|10=201|8=FIX.4.2|9=53|35=0|34=66|49=ORS|52=20220329-14:29:44.808|56=BROKER|10=210|8=FIX.4.2|9=53|35=0|34=67|49=ORS|52=20220329-14:30:14.810|56=BROKER|10=193|8=FIX.4.2|9=53|35=0|34=68|49=ORS|52=20220329-14:30:44.872|56=BROKER|10=205|8=FIX.4.2|9=53|35=0|34=69|49=ORS|52=20220329-14:31:15.804|56=BROKER|10=200|8=FIX.4.2|9=53|35=0|34=70|49=ORS|52=20220329-14:31:45.806|56=BROKER|10=197|8=FIX.4.2|9=53|35=0|34=71|49=ORS|52=20220329-14:32:15.873|56=BROKER|10=200|8=FIX.4.2|9=53|35=0|34=72|49=ORS|52=20220329-14:32:45.875|56=BROKER|10=206|8=FIX.4.2|9=65|35=A|34=73|49=ORS|52=20220329-14:36:27.261|56=BROKER|98=0|108=30|10=245|8=FIX.4.2|9=99|35=j|34=74|49=ORS|52=20220329-14:36:53.129|56=BROKER|45=74|58=Unsupported Message Type|372=D|380=3|10=070|8=FIX.4.2|9=53|35=0|34=75|49=ORS|52=20220329-14:37:23.191|56=BROKER|10=201|8=FIX.4.2|9=53|35=0|34=76|49=ORS|52=20220329-14:37:53.927|56=BROKER|10=212|8=FIX.4.2|9=99|35=j|34=77|49=ORS|52=20220329-14:37:54.179|56=BROKER|45=77|58=Unsupported Message Type|372=D|380=3|10=083|8=FIX.4.2|9=53|35=0|34=78|49=ORS|52=20220329-14:38:24.190|56=BROKER|10=205|8=FIX.4.2|9=53|35=0|34=79|49=ORS|52=20220329-14:38:54.228|56=BROKER|10=211|8=FIX.4.2|9=53|35=0|34=80|49=ORS|52=20220329-14:39:24.935|56=BROKER|10=206|8=FIX.4.2|9=53|35=0|34=81|49=ORS|52=20220329-14:39:54.935|56=BROKER|10=210|8=FIX.4.2|9=53|35=0|34=82|49=ORS|52=20220329-14:40:25.195|56=BROKER|10=199|8=FIX.4.2|9=53|35=0|34=83|49=ORS|52=20220329-14:40:55.201|56=BROKER|10=191|8=FIX.4.2|9=53|35=0|34=84|49=ORS|52=20220329-14:41:25.931|56=BROKER|10=200|8=FIX.4.2|9=65|35=A|34=85|49=ORS|52=20220329-14:49:40.259|56=BROKER|98=0|108=30|10=254|8=FIX.4.2|9=99|35=j|34=86|49=ORS|52=20220329-14:49:59.955|56=BROKER|45=86|58=Unsupported Message Type|372=D|380=3|10=093|8=FIX.4.2|9=53|35=0|34=87|49=ORS|52=20220329-14:50:30.184|56=BROKER|10=199|8=FIX.4.2|9=99|35=j|34=88|49=ORS|52=20220329-14:50:45.261|56=BROKER|45=88|58=Unsupported Message Type|372=D|380=3|10=074|8=FIX.4.2|9=53|35=0|34=89|49=ORS|52=20220329-14:51:15.304|56=BROKER|10=199|8=FIX.4.2|9=65|35=A|34=90|49=ORS|52=20220329-15:01:15.836|56=BROKER|98=0|108=30|10=242|8=FIX.4.2|9=99|35=j|34=91|49=ORS|52=20220329-15:01:33.770|56=BROKER|45=91|58=Unsupported Message Type|372=D|380=3|10=061|8=FIX.4.2|9=53|35=0|34=92|49=ORS|52=20220329-15:02:03.828|56=BROKER|10=198|8=FIX.4.2|9=99|35=j|34=93|49=ORS|52=20220329-15:02:18.551|56=BROKER|45=93|58=Unsupported Message Type|372=D|380=3|10=066|8=FIX.4.2|9=53|35=0|34=94|49=ORS|52=20220329-15:02:48.758|56=BROKER|10=211|8=FIX.4.2|9=53|35=0|34=95|49=ORS|52=20220329-15:03:18.762|56=BROKER|10=205|8=FIX.4.2|9=53|35=0|34=96|49=ORS|52=20220329-15:03:48.828|56=BROKER|10=212|8=FIX.4.2|9=53|35=0|34=97|49=ORS|52=20220329-15:04:18.828|56=BROKER|10=211|8=FIX.4.2|9=53|35=0|34=98|49=ORS|52=20220329-15:04:48.830|56=BROKER|10=208|8=FIX.4.2|9=53|35=0|34=99|49=ORS|52=20220329-15:05:19.758|56=BROKER|10=217|8=FIX.4.2|9=54|35=0|34=100|49=ORS|52=20220329-15:05:49.829|56=BROKER|10=251|8=FIX.4.2|9=54|35=0|34=101|49=ORS|52=20220329-15:06:20.751|56=BROKER|10=236|8=FIX.4.2|9=54|35=0|34=102|49=ORS|52=20220329-15:06:50.760|56=BROKER|10=240|8=FIX.4.2|9=54|35=0|34=103|49=ORS|52=20220329-15:07:20.828|56=BROKER|10=244|8=FIX.4.2|9=54|35=0|34=104|49=ORS|52=20220329-15:07:50.831|56=BROKER|10=242|8=FIX.4.2|9=54|35=0|34=105|49=ORS|52=20220329-15:08:21.762|56=BROKER|10=245|8=FIX.4.2|9=54|35=0|34=106|49=ORS|52=20220329-15:08:51.827|56=BROKER|10=251|8=FIX.4.2|9=54|35=0|34=107|49=ORS|52=20220329-15:09:21.829|56=BROKER|10=252|8=FIX.4.2|9=54|35=0|34=108|49=ORS|52=20220329-15:09:51.829|56=BROKER|10=000|8=FIX.4.2|9=54|35=0|34=109|49=ORS|52=20220329-15:10:21.829|56=BROKER|10=246|8=FIX.4.2|9=54|35=0|34=110|49=ORS|52=20220329-15:10:52.828|56=BROKER|10=241|8=FIX.4.2|9=54|35=0|34=111|49=ORS|52=20220329-15:11:23.827|56=BROKER|10=240|8=FIX.4.2|9=54|35=0|34=112|49=ORS|52=20220329-15:11:53.829|56=BROKER|10=246|8=FIX.4.2|9=54|35=0|34=113|49=ORS|52=20220329-15:12:24.827|56=BROKER|10=244|